:1000000071C0000081C000007FC000007DC0000002
:100010007BC0000079C0000077C0000075C0000000
:1000200073C0000071C000006FC000006DC0000010
:100030006BC0000069C0000067C0000065C0000020
:1000400063C0000095C000005FC000005DC00000FC
:100050005BC0000059C0000057C0000055C0000040
:1000600053C0000051C000004FC000004DC0000050
:100070004BC0000049C0000047C0000045C0000060
:1000800043C0000041C000003FC000003DC0000070
:100090003BC0000039C0000037C0000035C0000080
:1000A00033C0000031C000002FC000002DC0000090
:1000B0002BC0000029C0000027C0000025C00000A0
:1000C00023C0000021C000001FC000001DC00000B0
:1000D0001BC0000019C0000017C0000015C00000C0
:1000E00013C0000011241FBECFEFD1E2DEBFCDBF91
:1000F00000E00CBF22E0A0E0B2E001C01D92AC3CE9
:10010000B207E1F705D00AC17BCF83E5FDC00895B2
:10011000CF93DF9300D000D0CDB7DEB77894E4D092
:1001200061D085E890E09D838C8380E197E29B839A
:100130008A83CE0101966FD02AEA36EE86E991E0F5
:100140002150304080409040D9F7000079D02AEA11
:1001500036EE86E991E02150304080409040D9F75A
:10016000000083E5D1D08AE0CFD083E5CDD0EFCFBA
:100170001F920F920FB60F9211240BB60F922F936E
:100180003F934F935F936F937F938F939F93AF931F
:10019000BF93EF93FF9389E4B7D08091CA02909107
:1001A000CB02009721F483E08093C90208C018169F
:1001B00019062CF401979093CB028093CA02FF9109
:1001C000EF91BF91AF919F918F917F916F915F91CF
:1001D0004F913F912F910F900BBE0F900FBE0F903C
:1001E0001F901895E4E6F0E08081877F8083E0E847
:1001F000F0E080818C7F8083E1E8F0E080818D6099
:10020000808380818D7E808381EF90E4909389004C
:10021000809388000895FC0190910002943671F05B
:10022000A92FAA0FBB0BAF5FBD4FED93FC9390833B
:1002300015829F5F9093000280E008958FEF0895EC
:100240000F931F93CF93DF938091000288230CF4C8
:1002500046C0C0E0D1E001E012E0C81328C013C0DE
:10026000C0E085E451D009C080E090E001968F3471
:1002700023EC9207D9F786E447D0CF5F8091000244
:100280008C175CF72CC0D801ED91FC918181928193
:100290009093CB028093CA02D5830380F481E02D32
:1002A00019958091C9028330D9F2C0E0DDCFEC2FDF
:1002B000EE0FFF0BEF5FFD4F0190F081E02D81818C
:1002C00092819093CB028093CA02D5830380F481FC
:1002D000E02D19958091C902833031F6C2CFDF91AC
:1002E000CF911F910F91089580E28093C00088E123
:1002F0008093C10086E08093C20087E690E09093EF
:10030000C5008093C40008959091C00095FF04C07B
:100310008093C60080E008958FEF0895F894FFCF92
:00000001FF
