S0120000414D5370726F6A6563742E737265633A
S113000071C0000081C000007FC000007DC00000FE
S11300107BC0000079C0000077C0000075C00000FC
S113002073C0000071C000006FC000006DC000000C
S11300306BC0000069C0000067C0000065C000001C
S113004063C00000FDC000005FC000005DC0000090
S11300505BC0000059C0000057C0000055C000003C
S113006053C0000051C000004FC000004DC000004C
S11300704BC0000049C0000047C0000045C000005C
S113008043C0000041C000003FC000003DC000006C
S11300903BC0000039C0000037C0000035C000007C
S11300A033C0000031C000002FC000002DC000008C
S11300B02BC0000029C0000027C0000025C000009C
S11300C023C0000021C000001FC000001DC00000AC
S11300D01BC0000019C0000017C0000015C00000BC
S11300E013C0000011241FBECFEFD1E2DEBFCDBF8D
S11300F000E00CBF22E0A0E0B2E001C01D92A13DEF
S1130100B207E1F766D0DCC17BCF8091020288237D
S113011019F0813019F005C09AD103C080E092E053
S113012073D180910202813019F410920202089571
S113013081E08093020208951092B90088E98093C7
S1130140B800089584EA8093BC00ECEBF0E0808171
S11301508823ECF708958093BB0084E88093BC0067
S1130160ECEBF0E080818823ECF70895CF93DF93E4
S1130170DC016230B8F06250C62FD0E02196BE0197
S1130180680F791FECEBF0E044EC2BEB30E040839C
S113019090819923ECF7E90188818D93A617B7071D
S11301A0B1F701C0BC0184E88093BC00ECEBF0E043
S11301B080818823ECF78091BB00FB018083DF9171
S11301C0CF91089584E98093BC00089581E456C1D9
S11301D00895CF93DF93CDB7DEB760970FB6F89449
S11301E0DEBF0FBECDBF3AD1A7DF5CD085E890E07B
S11301F09F838E830F2EF4EFCF2EDD24D394E12C36
S1130200F12CF02DCA82DB82EC82FD82CE010196B4
S11302105AD086EE90E09F878E87CA86DB86EC866E
S1130220FD86CE0109964FD02FEF83ED90E3215048
S113023080409040E1F700C0000078945ED0FFCF8A
S11302401F920F920FB60F9211248F939F93AF9327
S1130250BF938091CD029091CE02A091CF02B09134
S1130260D0020097A105B10521F483E08093CC026C
S113027010C0181619061A061B065CF40197A1098A
S1130280B1098093CD029093CE02A093CF02B09394
S1130290D002BF91AF919F918F910F900FBE0F909D
S11302A01F901895109280008AE080938100EFE6F9
S11302B0F0E080818260808380ED97E090938900F4
S11302C0809388000895209103022436A1F0E091E0
S11302D00302EE0FFF0BEC5FFD4F918380832091AF
S11302E00302FC0120831782809103028F5F8093B5
S11302F0030280E008958FEF08957F928F929F927A
S1130300AF92BF92CF92DF92EF92FF920F931F931F
S1130310CF93DF938091030288230CF467C0E12C10
S1130320DD24D3940F2EFEEFCF2EF02DFF24FA946C
S11303300F2EFFE77F2EF02D6894BB24B1F8809137
S113034003028E1135C0E12C33C085E497D01DC063
S11303508091CC02833011F4BF8217C0282D392D2F
S11303604A2D502F612F7B2F8F2F9E2FAF2D90D092
S1130370822E932EA42E052F162FB72FF82FE92F98
S1130380A0E092D029F786E479D0E3948091030227
S11303908E15ACF62BC08091CC028330E9F28C2C04
S11303A09F2CAF2C0F2D1F2DBF2DFF2DE72DD0CF50
S11303B0EE2DEE0FFF0BEC5FFD4FC081D1818981E3
S11303C09A81AB81BC818093CD029093CE02A0939D
S11303D0CF02B093D002DF82D092CC02ED81FE81B5
S11303E019958091CC028330B1F6AFCFDF91CF91D4
S11303F01F910F91FF90EF90DF90CF90BF90AF903F
S11304009F908F907F9008950F931F93CF93DF93C6
S11304101F921F92CDB7DEB78C011A82198292DE29
S113042081EE99DE62E0CE010196A0DECBDE898109
S113043090E0982F88272A81822BF801918380836A
S11304400F900F90DF91CF911F910F9108957ADE55
S113045080EE81DE81E57FDEB5CE089580E2809373
S1130460C00088E18093C10086E08093C20087E6E3
S113047090E09093C5008093C40008959091C000CB
S113048095FF04C08093C60080E008958FEF08951F
S11304900024A7FD00942A0F301D401D501D601D2F
S11304A0701D801D901D08950024A7FD00942A1737
S11304B030054005500560057005800590050895D8
S10704C0F894FFCFDA
S9030000FC
