S0120000414D5370726F6A6563742E737265633A
S113000071C000008EC000008CC000008AC00000D7
S113001088C0000086C0000084C0000082C00000C8
S113002080C000007EC000007CC000007AC00000D8
S113003078C0000076C0000074C0000072C00000E8
S113004070C0000047C100006CC000006AC000001E
S113005068C0000066C0000064C0000062C0000008
S113006060C000005EC000005CC000005AC0000018
S113007058C0000056C0000054C0000052C0000028
S113008050C000004EC000004CC000004AC0000038
S113009048C0000046C0000044C0000042C0000048
S11300A040C000003EC000003CC000003AC0000058
S11300B038C0000036C0000034C0000032C0000068
S11300C030C000002EC000002CC000002AC0000078
S11300D028C0000026C0000024C0000022C0000088
S11300E020C0000011241FBECFEFD1E2DEBFCDBF80
S11300F000E00CBF12E0A0E0B2E0ECEFF8E000E0BA
S11301000BBF02C007900D92AE31B107D9F722E0C0
S1130110AEE1B2E001C01D92AF3EB207E1F7A3D059
S1130120EBC36ECFEF92FF920F931F93CF93DF93A6
S1130130CDB7DEB72D970FB6F894DEBF0FBECDBF97
S113014080912002882319F0813019F02BC0C9D185
S113015029C08EE192E0A2D120911E0230911F02AB
S11301609BE0E0E0F2E0DE01119601900D929A9599
S1130170E1F71D861C864AE0BE01655F7F4FC90119
S113018088D31E868E010F5F1F4F7E018EE0E80E1E
S1130190F11CF80181918F0139D20E151F05C9F7A1
S11301A08AE034D280912002813019F41092200226
S11301B003C081E0809320022D960FB6F894DEBF31
S11301C00FBECDBFDF91CF911F910F91FF90EF90A4
S11301D008951092B90088E98093B800089584EADC
S11301E08093BC00ECEBF0E080818823ECF7089569
S11301F08093BB0084E88093BC00ECEBF0E080814A
S11302008823ECF70895CF93DF93DC016230B8F0D4
S11302106250C62FD0E02196BE01680F791FECEB27
S1130220F0E044EC2BEB30E0408390819923ECF731
S1130230E90188818D93A617B707B1F701C0BC0106
S113024084E88093BC00ECEBF0E080818823ECF739
S11302508091BB00FB018083DF91CF91089584E9F5
S11302608093BC000895CF93DF93CDB7DEB760973A
S11302700FB6F894DEBF0FBECDBFB8D1AADF5CD0F5
S113028088E792E09F838E830F2EF4EFCF2EDD2438
S1130290D394E12CF12CF02DCA82DB82EC82FD8216
S11302A0CE0101965AD082E990E09F878E87CA8654
S11302B0DB86EC86FD86CE0109964FD02FEF83EDC9
S11302C090E3215080409040E1F700C00000789412
S11302D05ED0FFCF1F920F920FB60F9211248F930F
S11302E09F93AF93BF938091EB029091EC02A09106
S11302F0ED02B091EE020097A105B10521F483E06F
S11303008093EA0210C0181619061A061B065CF43C
S11303100197A109B1098093EB029093EC02A09399
S1130320ED02B093EE02BF91AF919F918F910F9028
S11303300FBE0F901F901895109280008AE0809352
S11303408100EFE6F0E080818260808380ED97E0B9
S11303509093890080938800089520912102243687
S1130360A1F0E0912102EE0FFF0BEE5DFD4F9183B2
S1130370808320912102FC01208317828091210235
S11303808F5F8093210280E008958FEF08957F921C
S11303908F929F92AF92BF92CF92DF92EF92FF9291
S11303A00F931F93CF93DF938091210288230CF442
S11303B067C0E12CDD24D3940F2EFEEFCF2EF02D59
S11303C0FF24FA940F2EFFE77F2EF02D6894BB24B0
S11303D0B1F8809121028E1135C0E12C33C085E43F
S11303E015D11DC08091EA02833011F4BF8217C079
S11303F0282D392D4A2D502F612F7B2F8F2F9E2F83
S1130400AF2D2FD2822E932EA42E052F162FB72F69
S1130410F82FE92FA0E031D229F786E4F7D0E3944E
S1130420809121028E15ACF62BC08091EA028330B4
S1130430E9F28C2C9F2CAF2C0F2D1F2DBF2DFF2DDF
S1130440E72DD0CFEE2DEE0FFF0BEE5DFD4FC081FB
S1130450D18189819A81AB81BC818093EB02909395
S1130460EC02A093ED02B093EE02DF82D092EA0296
S1130470ED81FE8119958091EA028330B1F6AFCF08
S1130480DF91CF911F910F91FF90EF90DF90CF906C
S1130490BF90AF909F908F907F9008950F931F937C
S11304A0CF93DF931F921F92CDB7DEB78C011A82D0
S11304B0198295DE81EE9CDE62E0CE010196A3DE18
S11304C0CEDE898190E0982F88272A81822BF8013B
S11304D0918380830F900F90DF91CF911F910F91A3
S11304E008957DDE80EE84DE81E582DEB8CE089557
S11304F0EF92FF920F931F93CF93DF93CDB7DEB7A5
S113050060970FB6F894DEBF0FBECDBF8EE0EDE06E
S1130510F2E0DE01119601900D928A95E1F7188AB6
S11305201F863CD07CD0DC01CB014AE0BE01615F78
S11305307F4FAFD18E010F5F1F4F7E0181E1E80E27
S1130540F11CF80181918F0161D00E151F05C9F7C7
S11305508AE05CD060960FB6F894DEBF0FBECDBFC4
S1130560DF91CF911F910F91FF90EF900895CF935A
S1130570C82F35DE80E93CDE8C2F3ADE70DECF9169
S11305800895CF93DF93EC012ADE81E931DE62E046
S1130590CE0139DE64DEDF91CF910895CF93DF93EE
S11305A01F921F92CDB7DEB780E0E1DFCE01019646
S11305B0E8DF698170E0762F66278A81682B75955C
S11305C06795759567957595679575956795072EE4
S11305D0000C880B990B56D020E030E040E85DE336
S11305E0B5D00F900F90DF91CF91089580E2809362
S11305F0C00088E18093C10086E08093C20087E652
S113060090E09093C5008093C4000895E0ECF0E07E
S1130610908195FFFDCF8093C60080E0089504D0BB
S11306206894B1118DC0089570D088F09F5790F0F0
S1130630B92F9927B751A0F0D1F0660F771F881F03
S1130640991F1AF0BA95C9F712C0B13081F077D06A
S1130650B1E0089574C0672F782F8827B85F39F008
S1130660B93FCCF3869577956795B395D9F73EF462
S113067090958095709561957F4F8F4F9F4F08950A
S1130680E89409C097FB3EF4909580957095619528
S11306907F4F8F4F9F4F9923A9F0F92F96E9BB27DE
S11306A09395F695879577956795B795F111F8CF5A
S11306B0FAF4BB0F11F460FF1BC06F5F7F4F8F4FC5
S11306C09F4F16C0882311F096E911C0772321F0BB
S11306D09EE8872F762F05C0662371F096E8862F53
S11306E070E060E02AF09A95660F771F881FDAF7AA
S11306F0880F9695879597F9089557FD9058440F5C
S1130700551F59F05F3F71F04795880F97FB991F6C
S113071061F09F3F79F08795089512161306140629
S1130720551FF2CF4695F1DF08C0161617061806B6
S1130730991FF1CF86957105610508940895E89491
S1130740BB2766277727CB0197F908950BD078C08C
S113075069D028F06ED018F0952309F05AC05FC014
S11307601124EECFCADFA0F3959FD1F3950F50E08B
S1130770551F629FF001729FBB27F00DB11D639F4F
S1130780AA27F00DB11DAA1F649F6627B00DA11DF5
S1130790661F829F2227B00DA11D621F739FB00D9B
S11307A0A11D621F839FA00D611D221F749F33270B
S11307B0A00D611D231F849F600D211D822F762FA4
S11307C06A2F11249F5750408AF0E1F088234AF0A1
S11307D0EE0FFF1FBB1F661F771F881F91505040ED
S11307E0A9F79E3F510570F014C0AACF5F3FECF308
S11307F0983EDCF3869577956795B795F795E795D9
S11308009F5FC1F7FE2B880F911D9695879597F9E9
S1130810089597F99F6780E870E060E008959FEF7E
S113082080EC089500240A94161617061806090683
S1130830089500240A941216130614060506089552
S1130840092E0394000C11F4882352F0BB0F40F4DA
S1130850BF2B11F460FF04C06F5F7F4F8F4F9F4F1A
S113086008950024A7FD00942A0F301D401D501D3B
S1130870601D701D801D901D08950024A7FD009427
S11308802A17300540055005600570058005900560
S11308900895BB274A3031F4992322F4BDE29095A0
S11308A081959F4F01C0BB27FB015527AA27880FBD
S11308B0991FAA1FA41710F0A41B83955051B9F7D0
S11308C0A05DAA3308F0A95DA193009779F7B1114F
S11308D0B1931192CB0100C0DC01FC01672F71912F
S11308E07723E1F7329704C07C916D937083629112
S10F08F0AE17BF07C8F30895F894FFCFBB
S11308FC44697374616E63653A2000000054656D3D
S111090C70657261747572653A200000000017
S9030000FC
