:1000000071C0000081C000007FC000007DC0000002
:100010007BC0000079C0000077C0000075C0000000
:1000200073C0000071C000006FC000006DC0000010
:100030006BC0000069C0000067C0000065C0000020
:1000400063C00000AEC000005FC000005DC00000E3
:100050005BC0000059C0000057C0000055C0000040
:1000600053C0000051C000004FC000004DC0000050
:100070004BC0000049C0000047C0000045C0000060
:1000800043C0000041C000003FC000003DC0000070
:100090003BC0000039C0000037C0000035C0000080
:1000A00033C0000031C000002FC000002DC0000090
:1000B0002BC0000029C0000027C0000025C00000A0
:1000C00023C0000021C000001FC000001DC00000B0
:1000D0001BC0000019C0000017C0000015C00000C0
:1000E00013C0000011241FBECFEFD1E2DEBFCDBF91
:1000F00000E00CBF22E0A0E0B2E001C01D92AE3CE7
:10010000B207E1F708D063C17BCF82E43EC1089516
:1001100081E43BC10895CF93DF93CDB7DEB76097FD
:100120000FB6F894DEBF0FBECDBF1FD16CD085E8EF
:1001300090E09F838E830F2EF8EECF2EF3E0DF2E1C
:10014000E12CF12CF02DCA82DB82EC82FD82CE0103
:1001500001966AD088E890E09F878E87CA86DB8602
:10016000EC86FD86CE0109965FD02FEF33ED80E35C
:10017000215030408040E1F700C0000078946ED0FC
:100180009AEA26EE36E981E09150204030408040E6
:10019000D9F7000081E4F9D08AE0F7D081E4F5D006
:1001A000EFCF1F920F920FB60F9211248F939F9350
:1001B000AF93BF938091CA029091CB02A091CC02E1
:1001C000B091CD020097A105B10521F483E08093A1
:1001D000C90210C0181619061A061B065CF401970E
:1001E000A109B1098093CA029093CB02A093CC02DB
:1001F000B093CD02BF91AF919F918F910F900FBEA1
:100200000F901F901895109280008AE080938100D3
:10021000EFE6F0E080818260808380ED97E090934C
:100220008900809388000895209100022436A1F06F
:10023000E0910002EE0FFF0BEF5FFD4F9183808393
:1002400020910002FC0120831782809100028F5FC1
:100250008093000280E008958FEF08957F928F923F
:100260009F92AF92BF92CF92DF92EF92FF920F9345
:100270001F93CF93DF938091000288230CF467C013
:10028000E12CDD24D3940F2EFEEFCF2EF02DFF2492
:10029000FA940F2EFFE77F2EF02D6894BB24B1F85F
:1002A000809100028E1135C0E12C33C085E46DD001
:1002B0001DC08091C902833011F4BF8217C0282D60
:1002C000392D4A2D502F612F7B2F8F2F9E2FAF2D31
:1002D00066D0822E932EA42E052F162FB72FF82F1F
:1002E000E92FA0E068D029F786E44FD0E39480910D
:1002F00000028E15ACF62BC08091C9028330E9F262
:100300008C2C9F2CAF2C0F2D1F2DBF2DFF2DE72DDB
:10031000D0CFEE2DEE0FFF0BEF5FFD4FC081D181EF
:1003200089819A81AB81BC818093CA029093CB0270
:10033000A093CC02B093CD02DF82D092C902ED81AE
:10034000FE8119958091C9028330B1F6AFCFDF915C
:10035000CF911F910F91FF90EF90DF90CF90BF90C2
:10036000AF909F908F907F90089580E28093C0001F
:1003700088E18093C10086E08093C20087E690E028
:100380009093C5008093C40008959091C00095FF9C
:1003900004C08093C60080E008958FEF0895002484
:1003A000A7FD00942A0F301D401D501D601D701DBB
:1003B000801D901D08950024A7FD00942A17300584
:1003C0004005500560057005800590050895F89476
:0203D000FFCF5D
:00000001FF
