S0120000414D5370726F6A6563742E737265633A
S113000071C0000081C000007FC000007DC00000FE
S11300107BC0000079C0000077C0000075C00000FC
S113002073C0000071C000006FC000006DC000000C
S11300306BC0000069C0000067C0000065C000001C
S113004063C00000E2C000005FC000005DC00000AB
S11300505BC0000059C0000057C0000055C000003C
S113006053C0000051C000004FC000004DC000004C
S11300704BC0000049C0000047C0000045C000005C
S113008043C0000041C000003FC000003DC000006C
S11300903BC0000039C0000037C0000035C000007C
S11300A033C0000031C000002FC000002DC000008C
S11300B02BC0000029C0000027C0000025C000009C
S11300C023C0000021C000001FC000001DC00000AC
S11300D01BC0000019C0000017C0000015C00000BC
S11300E013C0000011241FBECFEFD1E2DEBFCDBF8D
S11300F000E00CBF22E0A0E0B2E001C01D92A530F8
S1130100B207E1F74CD06DC27BCF1092B90088E9F9
S11301108093B800089584EA8093BC00ECEBF0E08F
S113012080818823ECF708958093BB0084E8809352
S1130130BC00ECEBF0E080818823ECF70895CF93CA
S1130140DF93DC016230B8F06250C62FD0E0219614
S1130150BE01680F791FECEBF0E044EC2BEB30E0D0
S1130160408390819923ECF7E90188818D93A61748
S1130170B707B1F701C0BC0184E88093BC00ECEB85
S1130180F0E080818823ECF78091BB00FB01808341
S1130190DF91CF91089584E98093BC000895CF93B3
S11301A0DF931F921F92CDB7DEB7B1D0AEDF5FD021
S11301B02FEF83ED90E3215080409040E1F700C0A1
S11301C000001A8219827BD0BCD0DC01CB014AE04A
S11301D0BE016F5F7F4FD2D18981A9D02FEF84E315
S11301E09CE0215080409040E1F700C000008A81EB
S11301F09ED02FEF84E39CE0215080409040E1F7B3
S113020000C000008AE093D0D3CF1F920F920FB6A4
S11302100F9211248F939F93AF93BF938091010208
S113022090910202A0910302B09104020097A105EB
S1130230B10521F483E08093000210C0181619065A
S11302401A061B065CF40197A109B1098093010207
S113025090930202A0930302B0930402BF91AF9162
S11302609F918F910F900FBE0F901F901895109231
S113027080008AE080938100EFE6F0E08081826074
S1130280808380ED97E0909389008093880008959F
S1130290CF93C82F40DF80E947DF8C2F45DF7BDF1A
S11302A0CF910895CF93DF93EC0135DF81E93CDFF3
S11302B062E0CE0144DF6FDFDF91CF910895CF93E9
S11302C0DF931F921F92CDB7DEB780E0E1DFCE014E
S11302D00196E8DF698170E0762F66278A81682BB2
S11302E075956795759567957595679575956795F2
S11302F0072E000C880B990B52D020E030E040E828
S11303005DE3B1D00F900F90DF91CF91089580E21B
S11303108093C00088E18093C10086E08093C2008E
S113032087E690E09093C5008093C400089590916F
S1130330C00095FF04C08093C60080E008958FEF4D
S1130340089570D088F09F5790F0B92F9927B7512E
S1130350A0F0D1F0660F771F881F991F1AF0BA9585
S1130360C9F712C0B13081F077D0B1E0089574C0FC
S1130370672F782F8827B85F39F0B93FCCF386957B
S113038077956795B395D9F73EF4909580957095D8
S113039061957F4F8F4F9F4F0895E89409C097FB55
S11303A03EF490958095709561957F4F8F4F9F4F48
S11303B09923A9F0F92F96E9BB279395F69587958C
S11303C077956795B795F111F8CFFAF4BB0F11F44F
S11303D060FF1BC06F5F7F4F8F4F9F4F16C08823F6
S11303E011F096E911C0772321F09EE8872F762F2C
S11303F005C0662371F096E8862F70E060E02AF06D
S11304009A95660F771F881FDAF7880F9695879558
S113041097F9089557FD9058440F551F59F05F3FC1
S113042071F04795880F97FB991F61F09F3F79F012
S113043087950895121613061406551FF2CF469594
S1130440F1DF08C0161617061806991FF1CF869516
S11304507105610508940895E894BB2766277727FA
S1130460CB0197F908950BD078C069D028F06ED0ED
S113047018F0952309F05AC05FC01124EECFCADFEB
S1130480A0F3959FD1F3950F50E0551F629FF001A3
S1130490729FBB27F00DB11D639FAA27F00DB11DFC
S11304A0AA1F649F6627B00DA11D661F829F222785
S11304B0B00DA11D621F739FB00DA11D621F839F0C
S11304C0A00D611D221F749F3327A00D611D231FE2
S11304D0849F600D211D822F762F6A2F11249F5730
S11304E050408AF0E1F088234AF0EE0FFF1FBB1F53
S11304F0661F771F881F91505040A9F79E3F5105F2
S113050070F014C0AACF5F3FECF3983EDCF38695FD
S113051077956795B795F795E7959F5FC1F7FE2B9C
S1130520880F911D9695879597F9089597F99F6778
S113053080E870E060E008959FEF80EC0895002467
S11305400A941616170618060906089500240A9434
S113055012161306140605060895092E0394000CBA
S113056011F4882352F0BB0F40F4BF2B11F460FF49
S113057004C06F5F7F4F8F4F9F4F0895BB274A3052
S113058031F4992322F4BDE2909581959F4F01C0E7
S1130590BB27FB015527AA27880F991FAA1FA41759
S11305A010F0A41B83955051B9F7A05DAA3308F04D
S11305B0A95DA193009779F7B111B1931192CB0181
S11305C000C0DC01FC01672F71917723E1F73297BA
S11305D004C07C916D9370836291AE17BF07C8F31A
S10905E00895F894FFCF1A
S9030000FC
